:100000006F00E05513000000130000001300000013
:100010001300000013000000130000001300000094
:100020001300000013000000130000001300000084
:08003000130000007300100032
:100038000000000000000000A0010000A401000072
:1000480000000000F60400000000000000000000AE
:10005800F8040000FA04000000000000000000009E
:10006800FC04000000000000FE0400000000000086
:100078000005000002050000040500000605000058
:10008800080500000A0500000C0500000E05000028
:1000980010050000120500001405000016050000F8
:1000A800180500001A0500001C0500001E050000C8
:1000B8002005000022050000240500002605000098
:1000C800280500002A0500002C0500002E05000068
:1000D8003005000032050000340500003605000038
:1000E800380500003A0500003C0500003E05000008
:1000F80040050000420500004405000046050000D8
:10010800480500004A0500004C0500004E050000A7
:100118005005000052050000540500005605000077
:10012800580500005A0500005C05000000000000AA
:080138000000000000000000BF
:10014000397101436EC619A0397141536AC866CA34
:1001500062CC5ECE19A0397101535AD056D252D416
:100160004ED64AD826DA22DC06DE3301614082828E
:1001700041114AC026C222C406C68282B24D410144
:10018000024D924C224CB24B4101024B924A224A00
:10019000B2494101024992442244B2404101828065
:1001A0007300203001A0EFF2BFFC41113714014071
:1001B0008D47E1443EC44C009307001013050480B2
:1001C00026C62312F1003929930700204C0013059D
:1001D00004802312F1003921E1774C0013050480DB
:1001E0002312F1000121A1474C00130504C0231282
:1001F000F100CD2E930700044C001305048026C6A1
:100200002312F100C526930700084C001305048053
:100210002312F100C12E4101B5BFEFF2FFF20945F3
:10022000752913858181EF005020856505469385EA
:10023000058013858181EF00702305469145138564
:100240008181EF00B0220546A14513858181EF0031
:10025000F0210546894513858181EF005020054630
:10026000854513858181EF00901F37390140253F77
:10027000930509C013858181EF00F021B705004087
:1002800013858181EF003021B70400401307002D52
:10029000814619469385044013858181EF00102320
:1002A0001307002D854619469385044013858181E7
:1002B000EF00D021930509C0054613858181EF0029
:1002C000D02D0546B705004013858181EF00F02C45
:1002D00005469385044013858181370A0020EF008D
:1002E000D02B13090A00EF00902C83264900014609
:1002F000938504409386861613858181EF0010262E
:100300008326090005469385044093868616138547
:100310008181B16AEF009024130A0A0093898180D9
:100320001389C181938A0A35B7350140938505C089
:1003300013858181EF00502723A0A900B705004055
:1003400013858181EF0050261D6B23A2A9008144F3
:10035000130CC0FC130B0B5303A7418283A70900A6
:10036000938641826309F70663F1E7083306F74095
:100370006378CB0641667D16B297B3059900998FD5
:100380009CC1338799001843B387960098C33307FD
:100390009A00B30799009C431443B69763C087073C
:1003A0009307B0FC1CC383264A00B70C00400146EB
:1003B0009386861693850C4013858181EF00101A71
:1003C00083260A00054693850C409386861613857E
:1003D0008181EF00B0189104A147E39FF4F6A9B71B
:1003E00033069900998F1CC269BF998F3307990012
:1003F00063F4FA004176B2971CC361B7930680E9B3
:10040000E3D2D7FA14C345B7B71702409843B706EB
:10041000FFF841111367170098C3D843370602004D
:10042000758FD8C39843B706F7FEFD16758F98C32E
:100430009843B706FCFFFD16758F98C3D843B706DF
:1004400081FFFD16758FD8C337079F0098C702C478
:1004500002C69843C166558F98C3B7160240056718
:100460009C42F18F3EC6A24785073EC4B24781E752
:10047000A247E397E7FEB71702409C431397E700B4
:100480006357070685473EC632478547631FF70413
:10049000B7170240D843B706C1FFFD16D8C3D843EB
:1004A000D8C3D84313670740D8C3D843758FD8C380
:1004B000D843B7061D00558FD8C39843B70600012F
:1004C000558F98C3984393166700E3DD06FED84323
:1004D000B7160240719BD8C3D84313672700D8C30F
:1004E0002147DC42B18BE39EE7FE4101828002C6D8
:1004F00061BF01A001A001A001A001A001A001A075
:1005000001A001A001A001A001A001A001A001A0E3
:1005100001A001A001A001A001A001A001A001A0D3
:1005200001A001A001A001A001A001A001A001A0C3
:1005300001A001A001A001A001A001A001A001A0B3
:1005400001A001A001A001A001A001A001A001A0A3
:1005500001A001A001A001A001A001A001A097019C
:1005600000209381212A175100201301A1A91715FA
:10057000000013056586970500209385A5A81386BE
:10058000818163FAC5008322050023A0550011056F
:100590009105E3EAC5FE13858181938581836377A5
:1005A000B500232005001105E36DB5FEFD427390F3
:1005B00002BC8D42739042809302800873A0023087
:1005C00097020000938282A793E232007390523028
:1005D000EFF09FE397020000938262C4739012349D
:1005E000730020309C4513F7070113F8F70001C78B
:1005F000D8413368E80037270240145B3707000F03
:10060000758F45EF85462386D182371701406317E2
:10061000E50003D7050035832390E50083D5050069
:1006200013F7F50F39C318418146854E3D4F930F9F
:10063000800293028004214E3396DE00B3F8C50099
:10064000631116039398260033131F011343F3FF1E
:100650003377E300B318180133E7E8006397F7072F
:1006600050C98506E39AC6FD18C11307F00F6375DC
:10067000B70454412146854E3D4F930F80029302AB
:100680008004414EB398CE0033F715016392E8021F
:100690001317260001173313EF001343F3FFB3764C
:1006A000D3003317E800D98E6395F703232A150189
:1006B0000506E319C6FD54C1828037170140E31FC8
:1006C000E5F403C7C18239DBA9B7E39C57F810C929
:1006D00049BFE39F57FC23281501D9BF23A8A18256
:1006E0008280B71702409843C176FD16758F98C374
:1006F0009843B706FCFFFD16758F98C341676307E3
:10070000E500370704006307E50082809843498FBE
:1007100098C382809843B7060500558FD5BFB7169A
:100720000240DC423707C1FF7D17F98FDD8DC98D8F
:10073000CCC2828009C9371702401C43B7060001AA
:10074000D58F1CC38280B71602409C42370700FF3A
:100750007D17F98F9CC28280371702405C43F19B62
:100760005D8D48C38280371702405C4393F7F7F0F2
:100770005D8D48C38280371702405C4393F7F78F43
:100780005D8D48C38280B7160240DC427177130743
:10079000F77FF98F0E055D8DC8C28280B7160240C3
:1007A000DC4251777D17F98F5D8DC8C2828099C573
:1007B000371702401C4F5D8D08CF8280B71702406B
:1007C000984F1345F5FF798D88CF828099C53717EB
:1007D00002405C4F5D8D48CF8280B7170240D84FF2
:1007E0001345F5FF798DC8CF828099C53717024030
:1007F0005C475D8D48C78280B7170240D8471345D4
:10080000F5FF798DC8C7828099C5371702401C4B08
:100810005D8D08CB8280B7170240984B1345F5FFDA
:10082000798D88CB8280B7170240A383A70082808E
:100830009357550005476399E700B71702409C435B
:1008400033D5A7000589828009476396E700B7176B
:1008500002409C53F5B7B7170240DC53D5B7EFF20F
:100860003F91411102C6056413051003D137B24709
:1008700085073EC6B247638387007DD51305100305
:10088000453F3335A000410131B28357050037376A
:100890000140130707C0C207C1836304E50237079D
:1008A00000406300E50213070740630CE5003717BB
:1008B0000040930607806306D500130707C063173F
:1008C000E50003D7250093F7F7F8D98F03D7650024
:1008D00093F7F7CFC207C183D98F2310F50083D7D1
:1008E00045002316F50283D705002314F502B73718
:1008F0000140938707C06316F50083C7850023185E
:10090000F5028547231AF50082808357050203D636
:10091000050003D82500C207C183F99BC207C18324
:100920002310F502835705028356450003578501BE
:10093000C207C183420741831377C7F8518F03D69B
:100940008500F59BC20633660601D18F373601401C
:10095000130606C0C1826313C50203D6A500DD9B42
:1009600003D8E500D18F03D64500ED9B93F6F6CF73
:10097000D18F03D6C50033660601D18E2312D50070
:10098000231CE50003D76500231AE5022310F502B6
:1009900082808357050265771307F7CFC207C183AB
:1009A000BD9BC207C1832310F502835705028356FE
:1009B000450003D88500C2071396060183568501BA
:1009C000C18393F7F7FD758F83D605004182A20698
:1009D000558F83D6250042074183B3E60601920670
:1009E000D58FB7360140C207938606C0C183631115
:1009F000D50483D6A50093F7F7F703D8C500920670
:100A0000D58F83D64500C207C183920693F7F7FBC3
:100A1000D58FFD769386F63FF18E03D6E500C207AB
:100A2000C183336606010A06D18E13960601418200
:100A30002312C500231CE50003D76500231CE50233
:100A40002310F50282808357050203D88500C20770
:100A5000C18393F7F7EFC207C1832310F5028357D1
:100A60000502835645000357C501C20713960601C8
:100A7000420783D6050041831377C7F8558F83D685
:100A80002500C18393F7F7DFB3E60601A206D58FF1
:100A9000B7360140C207938606C04182C183631204
:100AA000D504FD769386F67FF58F83D6A50003D80F
:100AB000C500A206D58F83D64500C207C183A20612
:100AC00093F7F7BFD58FF576FD16F18E03D6E500C7
:100AD000C207C183336606011206D18E1396060142
:100AE00041822312C500231EE50003D76500231EA3
:100AF000E5022310F502828003570502FD77FD17FA
:100B0000F98F2310F50203580502835645008357D9
:100B1000C501657703D605001307F7CF7D8FF977F9
:100B20002206FD17518FB3F7070103D6250003D81E
:100B30008500C2064207336606013206D18F37367A
:100B40000140C207130606C0C1824183C183631BF3
:100B5000C50071767D16F18E03D6C5001A06D18EBA
:100B6000C206C1822312D500231EE50003D765000B
:100B70002310E5042310F50282808357050091C5F8
:100B800093E717002310F5008280C207C183F99B09
:100B9000C207C183C5BF8357450491C52167D98F5B
:100BA0002312F5048280C607C583DDBF0358850084
:100BB0000357850183570502420813580801C207ED
:100BC0004207C18392064183137888FF93F7D7FDCC
:100BD000558EB365B8001377C7CFD18F2314B500F6
:100BE00013671710C207C183231CE5002310F50209
:100BF00082808357050091C593E707082310F5000D
:100C00008280C207C18393F7F7F7C207C183FDB79C
:100C10000357C501FD779387F77FF98FA205CD8F25
:100C2000C207C183231EF5008280EFF26FD44165B5
:100C30004D3C3531B7051C004165D5340545DD3CDB
:100C40000945193E13050008393E01452D36014579
:100C50001D3E1165A1360145F9366FF0AFD3EFF2B5
:100C60002FD12E85B2859D366FF0CFD2EFF24FD0C7
:100C70002E85B2852D3E6FF0EFD1EFF26FCF2E852E
:100C8000B285A5366FF00FD1EFF28FCE2E85B285EB
:100C9000A53E6FF02FD0EFF2AFCD41112E84FD575E
:100CA0002314F1004C008D4722852312F1002313F9
:100CB00001002315010023160100C13E81460146B3
:100CC00085452285E53541016FF0CFCCEFF24FCA63
:100CD00079712E84930780164C08228536C63AC453
:100CE000231CF100231B0100231D0100231E010012
:100CF000231AC100593E2247C167B24693870706AF
:100D00003ED02313E102231401028547638CF602CF
:100D100095C68947638CF6028D47638DF60222855E
:100D20008545953D22858145E53522858545D13529
:100D300085452285993545616FF0CFC50C10228518
:100D4000E936F1BF0C102285A931D1BF0C102285E4
:100D5000DD39F1B70C1022854533D1B78547630FD4
:100D6000F60001CA89476300F6028D476302F60266
:100D70008280C206C182239AD5028280C206C182C5
:100D8000239CD5028280C206C182239ED502828026
:100D9000C206C1822390D5048280EFF26FBD2E85FA
:100DA000B285E13B6FF00FBF03D54502828083A778
:100DB000018137177A0013070720B3D7E70293F7AB
:100DC000F70F238BF1821307803EB387E702239A44
:040DD000F1828280AA
:100DD40033FFFFFF33FFFFFF0100000001000000AD
:080DE40000A24A040000000017
:00000001FF
